{
    "contractName": "Loteria",
    "abi": [
        {
            "inputs": [],
            "stateMutability": "nonpayable",
            "type": "constructor"
        },
        {
            "anonymous": false,
            "inputs": [
                {
                    "indexed": false,
                    "internalType": "address",
                    "name": "remetente",
                    "type": "address"
                },
                {
                    "indexed": false,
                    "internalType": "uint256",
                    "name": "palpite",
                    "type": "uint256"
                }
            ],
            "name": "PalpiteRegistrado",
            "type": "event"
        },
        {
            "anonymous": false,
            "inputs": [
                {
                    "indexed": false,
                    "internalType": "uint256",
                    "name": "premioTotal",
                    "type": "uint256"
                },
                {
                    "indexed": false,
                    "internalType": "uint256",
                    "name": "PremioIndividual",
                    "type": "uint256"
                }
            ],
            "name": "PremioEnviado",
            "type": "event"
        },
        {
            "anonymous": false,
            "inputs": [
                {
                    "indexed": false,
                    "internalType": "uint256",
                    "name": "resultado",
                    "type": "uint256"
                }
            ],
            "name": "SorteioPostado",
            "type": "event"
        },
        {
            "anonymous": false,
            "inputs": [
                {
                    "indexed": false,
                    "internalType": "address",
                    "name": "pagante",
                    "type": "address"
                },
                {
                    "indexed": false,
                    "internalType": "uint256",
                    "name": "troco",
                    "type": "uint256"
                }
            ],
            "name": "TrocoEnviado",
            "type": "event"
        },
        {
            "inputs": [],
            "name": "contarPalpiter",
            "outputs": [
                {
                    "internalType": "uint256",
                    "name": "count",
                    "type": "uint256"
                }
            ],
            "stateMutability": "view",
            "type": "function"
        },
        {
            "inputs": [
                {
                    "internalType": "uint256",
                    "name": "palpiteEnviado",
                    "type": "uint256"
                }
            ],
            "name": "enviarPalpite",
            "outputs": [],
            "stateMutability": "payable",
            "type": "function"
        },
        {
            "inputs": [],
            "name": "sortear",
            "outputs": [
                {
                    "internalType": "uint8",
                    "name": "_numeroSorteado",
                    "type": "uint8"
                }
            ],
            "stateMutability": "nonpayable",
            "type": "function"
        },
        {
            "inputs": [],
            "name": "verificaPalpite",
            "outputs": [
                {
                    "internalType": "uint256",
                    "name": "palpite",
                    "type": "uint256"
                }
            ],
            "stateMutability": "view",
            "type": "function"
        }
    ],
    "bytecode": "608060405234801561001057600080fd5b50600080546001600160a01b031916331790554260025561053e806100366000396000f3fe60806040526004361061003f5760003560e01c80638ade2ac4146100445780639e0ea87e1461006f578063ad76c31014610096578063c499a53a146100b5575b600080fd5b34801561005057600080fd5b506100596100ca565b6040805160ff9092168252519081900360200190f35b34801561007b57600080fd5b506100846101d3565b60408051918252519081900360200190f35b6100b3600480360360208110156100ac57600080fd5b5035610232565b005b3480156100c157600080fd5b50610084610433565b600080546001600160a01b0316331461012a576040805162461bcd60e51b815260206004820152601d60248201527f4170656e6173206f20646f6e6f20706f64652066617a6572206973736f000000604482015290519081900360640190fd5b600254603c01421161016d5760405162461bcd60e51b815260040180806020018281038252602b8152602001806104b0602b913960400191505060405180910390fd5b600554600111156101af5760405162461bcd60e51b815260040180806020018281038252602c81526020018061043a602c913960400191505060405180910390fd5b60408051436000190140602080830191909152825180830390910190528101905290565b3360009081526004602052604081205461021e5760405162461bcd60e51b81526004018080602001828103825260298152602001806104876029913960400191505060405180910390fd5b503360009081526004602052604090205490565b60018110158015610244575060048111155b61027f5760405162461bcd60e51b81526004018080602001828103825260218152602001806104666021913960400191505060405180910390fd5b33600090815260046020526040902054156102cb5760405162461bcd60e51b815260040180806020018281038252602e8152602001806104db602e913960400191505060405180910390fd5b670de0b6b3a7640000341015610328576040805162461bcd60e51b815260206004820152601e60248201527f41207461786120706172612070616c7069746172206520312065746865720000604482015290519081900360640190fd5b670de0b6b3a763ffff19340180156103a457604051339082156108fc029083906000818181858888f19350505050158015610367573d6000803e3d6000fd5b50604080513381526020810183905281517fb2f6b324486033af62b73731e627bef2c0b15dbfb1746f6beb433455e40cb091929181900390910190a15b3360008181526004602090815260408083208690556005805460018101825593527f036b6384b5eca791c62761152d0c79bb0604c104a5fb6f4eb0703f3154bb3db090920180546001600160a01b031916841790558151928352820184905280517f18b14a53cd3a41d87ca1cf202539dadeb899df3db88d2adcbeae12628a32c4469281900390910190a15050565b6005549056fe556d206d696e696d6f206465203120706573736f6120652065786967696461207061726120736f7274656172566f63652074656d20717565206573636f6c68657220656e747265203120652034566f63652061696e6461206e616f2074656d2070616c7069746573206e6573746520736f727465696f536f727465696f20736f20706f646520736572207265616c697a61646f2061706f732031206d696e75746f4170656e617320756d2070616c7069746520706f64652073657220656e766961646f20706f7220736f727465696fa26469706673582212200bb382e57629e71d70b6a1fcbe43af9be979b2d8f6733983e28c257d17dcb72a64736f6c63430007000033",
    "sourcePath": "/home/fabricio/Documentos/Learning_Solidity/prizeDraw.sol",
    "compiler": {
        "name": "solc",
        "version": "0.7.0+commit.9e61f92b"
    },
    "functionHashes": {
        "contarPalpiter()": "c499a53a",
        "enviarPalpite(uint256)": "ad76c310",
        "sortear()": "8ade2ac4",
        "verificaPalpite()": "9e0ea87e"
    },
    "gasEstimates": {
        "creation": {
            "codeDepositCost": "268400",
            "executionCost": "41146",
            "totalCost": "309546"
        },
        "external": {
            "contarPalpiter()": "1042",
            "enviarPalpite(uint256)": "infinite",
            "sortear()": "infinite",
            "verificaPalpite()": "infinite"
        }
    }
}